:020000040800F2
:100000000050002091200008B5090008B709000839
:10001000B9090008BB090008BD090008000000007C
:10002000000000000000000000000000BF09000800
:10003000C109000800000000C3090008C509000844
:10004000D9200008D9200008D9200008D9200008AC
:10005000D9200008D9200008D9200008D92000089C
:10006000D9200008D9200008D9200008D5090008A7
:10007000D9200008D9200008D9200008D92000087C
:10008000D9200008D9200008D9200008D92000086C
:10009000D9200008D9200008D9200008D92000085C
:1000A000D9200008D9200008D9200008D92000084C
:1000B000D9200008D9200008D9200008D92000083C
:1000C000D9200008D9200008D9200008D92000082C
:1000D000D9200008D9200008D9200008D92000081C
:1000E000E1090008D9200008D9200008000000001C
:1000F0000000000000000000000000000000000000
:0C01000000000000000000005FF808F1A3
:10010C0010B5054C237833B9044B13B10448AFF345
:10011C0000800123237010BD10000020000000009F
:10012C003421000808B5034B1BB103490348AFF356
:10013C00008008BD000000001400002034210008DD
:10014C0080F0004002E000BF81F0004142001FBF80
:10015C005FEA410392EA030F7FEA226C7FEA236C89
:10016C006AD04FEA1262D2EB1363C1BFD21841407E
:10017C0048404140B8BF5B42192B88BF704710F014
:10018C00004F40F4000020F07F4018BF404211F0B7
:10019C00004F41F4000121F07F4118BF494292EA1F
:1001AC00030F3FD0A2F1010241FA03FC10EB0C004B
:1001BC00C3F1200301FA03F100F0004302D54942D8
:1001CC0060EB4000B0F5000F13D3B0F1807F06D385
:1001DC0040084FEA310102F10102FE2A51D2B1F17D
:1001EC00004F40EBC25008BF20F0010040EA030072
:1001FC007047490040EB000010F4000FA2F101021F
:10020C00EDD1B0FA80FCACF1080CB2EB0C0200FAA8
:10021C000CF0AABF00EBC25052421843BCBFD040F6
:10022C001843704792F0000F81F4000106BF80F470
:10023C0000000132013BB5E74FEA41037FEA226C33
:10024C0018BF7FEA236C21D092EA030F04D092F0FE
:10025C00000F08BF0846704790EA010F1CBF002032
:10026C00704712F07F4F04D1400028BF40F000408F
:10027C00704712F100723CBF00F50000704700F0AF
:10028C00004343F0FE4040F4000070477FEA2262D6
:10029C0016BF08467FEA23630146420206BF5FEAA7
:1002AC00412390EA010F40F4800070474FF00003A7
:1002BC0004E000BF10F0004348BF40425FEA000C6E
:1002CC0008BF704743F0964301464FF000001CE016
:1002DC0050EA010208BF70474FF000030AE000BF6C
:1002EC0050EA010208BF704711F0004302D54042AA
:1002FC0061EB41015FEA010C02BF8446014600201C
:10030C0043F0B64308BFA3F18053A3F50003BCFA36
:10031C008CF2083AA3EBC25310DB01FA02FC6344E3
:10032C0000FA02FCC2F12002BCF1004F20FA02F2EA
:10033C0043EB020008BF20F00100704702F12002DD
:10034C0001FA02FCC2F1200250EA4C0021FA02F23E
:10035C0043EB020008BF20EADC7070474FF0FF0C43
:10036C001CEAD0521EBF1CEAD15392EA0C0F93EA3E
:10037C000C0F6FD01A4480EA010C400218BF5FEAE0
:10038C0041211ED04FF0006343EA501043EA511153
:10039C00A0FB01310CF00040B1F5000F3EBF49004D
:1003AC0041EAD3715B0040EA010062F17F02FD2A51
:1003BC001DD8B3F1004F40EBC25008BF20F0010034
:1003CC00704790F0000F0CF0004C08BF49024CEA4B
:1003DC00502040EA51207F3AC2BFD2F1FF0340EADD
:1003EC00C250704740F400004FF00003013A5DDC4E
:1003FC0012F1190FDCBF00F000407047C2F100028F
:10040C00410021FA02F1C2F1200200FA02FC5FEA7B
:10041C00310040F1000053EA4C0308BF20EADC70C5
:10042C00704792F0000F00F0004C02BF400010F437
:10043C00000F013AF9D040EA0C0093F0000F01F0E4
:10044C00004C02BF490011F4000F013BF9D041EA06
:10045C000C018FE70CEAD15392EA0C0F18BF93EA08
:10046C000C0F0AD030F0004C18BF31F0004CD8D132
:10047C0080EA010000F00040704790F0000F17BFB9
:10048C0090F0004F084691F0000F91F0004F14D0FF
:10049C0092EA0C0F01D142020FD193EA0C0F03D157
:1004AC004B0218BF084608D180EA010000F000405A
:1004BC0040F0FE4040F40000704740F0FE4040F435
:1004CC00400070474FF0FF0C1CEAD0521EBF1CEAD4
:1004DC00D15392EA0C0F93EA0C0F69D0A2EB0302F2
:1004EC0080EA010C49024FEA402037D04FF080538C
:1004FC0043EA111143EA10130CF000408B4238BF51
:10050C005B0042F17D024FF4000C8B4224BF5B1A5E
:10051C0040EA0C00B3EB510F24BFA3EB510340EAAC
:10052C005C00B3EB910F24BFA3EB910340EA9C005A
:10053C00B3EBD10F24BFA3EBD10340EADC001B01CA
:10054C0018BF5FEA1C1CE0D1FD2A3FF650AF8B426E
:10055C0040EBC25008BF20F0010070470CF0004C7B
:10056C004CEA50207F32C2BFD2F1FF0340EAC250A6
:10057C00704740F400004FF00003013A37E792F067
:10058C00000F00F0004C02BF400010F4000F013AC5
:10059C00F9D040EA0C0093F0000F01F0004C02BFC0
:1005AC00490011F4000F013BF9D041EA0C0195E729
:1005BC000CEAD15392EA0C0F08D142027FF47DAFC2
:1005CC0093EA0C0F7FF470AF084676E793EA0C0FB2
:1005DC0004D14B023FF44CAF08466EE730F0004CB0
:1005EC0018BF31F0004CCAD130F000427FF45CAF40
:1005FC0031F000437FF43CAF5FE700BF1148124B72
:10060C0030B50024012503604FF4002385B001941C
:10061C0002940394846005730475C361446005619E
:10062C0000F0D0FC08B100F09BF9072301A90548A4
:10063C0001940295039300F059FB08B100F090F976
:10064C0005B030BD440000200024014030B5054603
:10065C0087B01022002102A801F05EFD2A681D4B14
:10066C009A4234D103F56C439A691B4842F40072E8
:10067C009A619A6902A902F400720092009A9A692E
:10068C00164C42F004029A619B6903F00403019337
:10069C00019B012302930323039300F07FFE80222E
:1006AC00E2604FF4807222614FF480620C4B626105
:1006BC0023602022002320466360A360A261E361D3
:1006CC0000F06AFD08B100F04BF92C62656207B0CE
:1006DC0030BD00BF00240140000801407400002020
:1006EC00080002400A4B07B55A690B2042F0010280
:1006FC005A6100225B69114603F001030193019BCF
:10070C0000F0F2FC0B2000F023FD03B05DF804FBBD
:10071C00001002401022F0B589B00DEB0200002150
:10072C0001F0FAFC354B364E9A69304642F0100215
:10073C009A619A69202102F010020092009A9A693B
:10074C00002542F020029A619A692E4F02F0200295
:10075C000192019A9A69032442F004029A619A69FF
:10076C0002F004020292029A9A6942F008029A611B
:10077C009B69002203F008030393039B00F0F0FE37
:10078C004FF400530493204B04A938460593069567
:10079C0000F004FE41F6FF7304A938460493059457
:1007AC0000F0FCFD49F6D27304A93046049305947D
:1007BC0000F0F4FD2023049301230593022304A9E4
:1007CC0030460793069500F0E9FD4FF6F77304A940
:1007DC000E480493059400F0E1FD042304A90C4891
:1007EC000493059400F0DAFD2A462946282000F0EF
:1007FC007BFC282000F0ACFC09B0F0BD00100240DE
:10080C00000801400010014000001110000C0140D4
:10081C0000140140282230B595B00DEB02000021E8
:10082C0001F07AFC142210250DEB0200002101F0DE
:10083C0073FC2A46002101A801F06EFC012302245E
:10084C000E934FF460130AA813930A940F95119406
:10085C0000F098FE0F234FF480620593002321468D
:10086C0005A8079308920993069401F065F84FF4D4
:10087C00404301A80194039301F01CF915B030BD5D
:10088C0008B500F0D3F9FFF7C5FFFFF743FFFFF7FB
:10089C0029FFFFF7B3FE00F059F900F0FBF800F068
:1008AC00C3F8044801F0F2F901220349034800F0AF
:1008BC00D9FAFEE7FC000020B8000020440000201C
:1008CC002DE9F8431E4A1F4E13781F4C0133DBB23F
:1008DC00642B137023D81D4B1D4F93F800801D4BB8
:1008EC0008F1FF301D68FFF7E5FC3968FFF736FDAE
:1008FC0081462846FFF7DAFC01464846FFF726FCFE
:10090C0081464046FFF7D6FC01464846FFF7DAFD24
:10091C0030603860206828442060BDE8F8830025EA
:10092C000D4B1570326820681A60642390FBF3F04D
:10093C00FFF7C0FC094B25601860BDE8F88300BFC9
:10094C003400002040000020300000200000002077
:10095C003C000020B8000020380000202C000020B3
:10096C00704700000E4B82B09A6942F001029A6106
:10097C009A6902F001020092009ADA6942F0805200
:10098C00DA61DB69074A03F080530193019B5368DA
:10099C0023F0E06343F00073536002B0704700BF74
:1009AC0000100240000001407047FEE7FEE7FEE742
:1009BC00FEE770477047704708B5FFF781FFBDE849
:1009CC00084000F045B90000014800F053BC00BFDE
:1009DC00740000204FF4005000F0C8BD0F4B1A6893
:1009EC0042F001021A6059680D4A0A405A601A68AE
:1009FC0022F0847222F480321A601A6822F4802267
:100A0C001A605A6822F4FE025A604FF41F029A6070
:100A1C004FF00062034B9A60704700BF0010024019
:100A2C000000FFF800ED00E07FB51022002102A8C5
:100A3C0001F072FB42F20F7214481549002380E852
:100A4C00060040F67F42009301938360C26003610D
:100A5C00836101F065F908B1FFF782FF4FF4805311
:100A6C0002A90A48029301F0F3F908B1FFF778FFE5
:100A7C0020220023694605488DE80C0001F07CFA21
:100A8C0008B1FFF76DFF07B05DF804FBFC00002018
:100A9C000004004010B500248AB01C22214603A893
:100AAC000194029401F038FB1248134B846080E8E7
:100ABC001800C4600461846101F04CF908B1FFF7BF
:100ACC004FFF01A90B480194029401F055FA08B1AB
:100ADC00FFF746FF0C2200230DEB020105480393A0
:100AEC0004930593079301F07BF908B1FFF738FFE6
:100AFC000AB010BDBC000020000800400268084B82
:100B0C0082B09A420AD103F50333DA6942F0020249
:100B1C00DA61DB6903F002030193019B02B07047B9
:100B2C00000400400268084B82B09A420AD103F5D7
:100B3C000233DA6942F00402DA61DB6903F0040380
:100B4C000193019B02B070470008004008B54FF4B8
:100B5C00E13E0A480A4B0C2280E80840002342611F
:100B6C008360C36003618361C36101F05DFA18B1F6
:100B7C00BDE80840FFF7F4BE08BD00BF3C010020F3
:100B8C000044004010B5044686B01022002102A893
:100B9C0001F0C2FA2268114B9A421CD103F5E633DC
:100BAC00DA6902A942F40032DA61DA690C4802F41B
:100BBC0000320092009A9A6942F004029A619B6991
:100BCC0003F004030193019B0C2302930223039370
:100BDC00059300F0E3FB06B010BD00BF00440040DD
:100BEC000008014038B50E4B054618784FF47A735F
:100BFC00B3FBF0F30B4A1068B0FBF3F000F0B6FA5D
:100C0C00044658B90F2D09D8024629464FF0FF303B
:100C1C0000F06AFA044B20461D6038BD012038BD37
:100C2C0008000020040000200C000020074A08B532
:100C3C001368032043F01003136000F043FA002004
:100C4C00FFF7D0FFFFF78EFE002008BD002002400A
:100C5C00034A044B11681B780B441360704700BFA8
:100C6C007C01002008000020014B1868704700BF71
:100C7C007C0100207047436A10B59A6A12F0500F3D
:100C8C001BD19A6A42F400729A621A68926802F452
:100C9C006022B2F5602F0CD11A7B52B99A6A22F4F9
:100CAC0080729A629A6AD2045EBF9A6A42F001021A
:100CBC009A621846FFF7DEFF10BD1B6ABDE81040B4
:100CCC001B6B1847704708B5406AFFF7FBFF08BD60
:100CDC007047406A08B5836A43F040038362C36A75
:100CEC0043F00403C362FFF7F3FF08BD002373B5A1
:100CFC00019390F82430012B74D001234D6880F8B7
:100D0C002430062D02684FEA85030C6825D82B4445
:100D1C001F25566B053B9D4026EA050504FA03F397
:100D2C002B435363092C4FEA44038D682FD90726B4
:100D3C002344D1681E3B9E4021EA060105FA03F3C9
:100D4C000B43D360A4F11003012B2BD900230022F9
:100D5C0080F82420184602B070BD0C2D0BD82B4403
:100D6C001F25166B233B9D4026EA050504FA03F369
:100D7C002B431363D6E72B441F25D66A413B9D407A
:100D8C0026EA050504FA03F32B43D362CAE70726C8
:100D9C00116923449E4021EA060105FA03F30B4333
:100DAC001361CFE7104B9A4216D193681B02CDD436
:100DBC009368102C43F400039360C7D10B4B0C4A7F
:100DCC001B68B3FBF2F20A2353430193019B002BE4
:100DDC00BCD0019B013BF8E7836A43F0200383629C
:100DEC000123B4E70223B5E70024014004000020EE
:100DFC0040420F00002373B50193036804469A68C0
:100E0C00D20702D5002002B070BD9A6842F00102F0
:100E1C009A60124B124A1B68B3FBF2F30193019BCD
:100E2C00C3B9FFF721FF064623689D6815F001053D
:100E3C00E8D1FFF719FF801B0228F5D9A36A84F8C3
:100E4C00245043F01003A362E36A012043F0010332
:100E5C00E362D8E7019B013BE0E700BF0400002000
:100E6C0040420F002DE9D8419046404B02680446A1
:100E7C009A420F4602D03E498A4203D15B6813F472
:100E8C00702F6ED194F82430012B6CD001232046A6
:100E9C0084F82430FFF7AEFF064600285DD1A06A27
:100EAC00216820F47060324B20F0010040F4807017
:100EBC009942A06204D12D4A536813F4702F3ED18D
:100ECC00A36A23F48013A3624B685A0505D5A36A61
:100EDC0023F4405343F48053A362A36A206A13F4AF
:100EEC00805318BFE36A3A4618BF23F00603E36247
:100EFC00002384F824301F4B4C3183621E4BC36299
:100F0C001E4B03636FF0020341F84C3C51F8443C18
:100F1C0043F4807341F8443C434600F06DF9236878
:100F2C009A6802F46022B2F5602F9A680CBF42F402
:100F3C00A00242F480129A603046BDE8D881A36AC0
:100F4C0043F48013A36253685B0541BFA06A20F48D
:100F5C00405040F48050A062BFE7002384F8243056
:100F6C00EAE70126E8E70226E6E700BF0024014095
:100F7C0000280140830C0008D30C0008DF0C00088B
:100F8C0038B5036804469A68D20701D4002038BDEE
:100F9C009A6822F001029A60FFF766FE0546236804
:100FAC009B68DB07F2D5FFF75FFE401B0228F6D9E2
:100FBC00A36A012043F01003A362E36A43F0010328
:100FCC00E36238BD70B50446002871D0836A23B93A
:100FDC00C36280F82430FFF739FB2046FFF7D0FFBF
:100FEC00A36A13F0100FA36A64D1002862D1E169DF
:100FFC0023F48853626823F0020343F002030A438C
:10100C00A168A362237BB1F5807F42EA430238D00A
:10101C00012914BF06464FF48076257D012D07D19A
:10102C00002B30D1A369013B46EA433545F40066F9
:10103C002368B1F5807F5D6825F4694545EA0605AE
:10104C005D609E681D4D05EA060545EA02059D603A
:10105C0001D0012920D1216901390905DD6A25F466
:10106C0070052943D9629968154B0B409A4215D1EA
:10107C000023E362A36A23F0030343F00103A3629A
:10108C0070BD0E46C9E7A36A43F02003A362E36A6E
:10109C0043F00103E362CBE70021DFE7A36A23F00F
:1010AC00120343F01003A362E36A43F00103E3620B
:1010BC00012070BD43F01003A362F9E7FDF7E1FFD7
:1010CC00FE0E1FFF074A0002D36800F4E06023F411
:1010DC00E0631B041B0C43F0BF6343F40033034376
:1010EC00D360704700ED00E0174B30B5DC68C4F3FB
:1010FC000224C4F10703251D042B28BF0423062D4D
:10110C004FF0010598BF002405FA03F303F1FF33F8
:10111C0088BF033C1940A14005FA04F4013C22406D
:10112C00002842EA01024FEA0212A9BF00F1604016
:10113C00064BD2B200F56140BBBF00F00F00D2B23B
:10114C0080F800231A5430BD00ED00E014ED00E0EF
:10115C00002808DB0123420900F01F0003FA00F00D
:10116C00014B43F82200704700E100E00138B0F178
:10117C00807F0AD2F021064B064A586082F8231071
:10118C000020072298601A6070470120704700BF4A
:10119C0010E000E000ED00E010B530B3142201685F
:1011AC00134B84680B44B3FBF2F39B000364114BA9
:1011BC000A68C363436822F47F522343C46822F055
:1011CC003002234304692343446923438469234342
:1011DC00C469234313430B600122002380F82120B0
:1011EC00836380F82030184610BD012010BD00BF6D
:1011FC00F8FFFDBF00000240F0B590F82040012C34
:10120C0035D0012490F8215080F82040A5424FF0B1
:10121C0000064FF0020428D180F821400468866350
:10122C002668076C26F001062660C66BBD4075600B
:10123C00636043680568102BC36A0BBFA260A16092
:10124C00E160E2604BB1236843F00E0323602B682E
:10125C00002043F001032B60F0BD236823F004034E
:10126C002360236843F00A03F0E780F82060022033
:10127C00F0BD000070B40425C66B026C34680368C2
:10128C0095402542196832D04D0730D51A6896061C
:10129C005EBF1A6822F004021A603E4A934219D0CB
:1012AC001432934218D01432934217D01432934212
:1012BC0017D01432934217D0143293420CBF4FF410
:1012CC0080034FF08063344A5360C36A002B5ED0B6
:1012DC0070BC18470423F6E74023F4E74FF480630F
:1012EC00F1E74FF48043EEE74FF48023EBE7022560
:1012FC009540254235D08D0733D51A68940606D40F
:10130C001A6822F00A021A60012280F82120214A70
:10131C00934219D01432934218D01432934217D0FE
:10132C001432934217D01432934217D01432934292
:10133C000CBF4FF400134FF00073174A5360002397
:10134C0080F82030836AC1E70223F6E72023F4E714
:10135C004FF40073F1E74FF40053EEE74FF4003312
:10136C00EBE708259540254211D009070FD51968E0
:10137C0021F00E011960012303FA02F272608363FB
:10138C0080F82130002380F82030036B9EE770BC7E
:10139C00704700BF08000240000002402DE9F74FE3
:1013AC0000242646664BDFF8A8E1DFF8A8C10A68DE
:1013BC0032FA06F502D103B0BDE8F08F4FF0010808
:1013CC0008FA06F802EA080290457FD14D68122D02
:1013DC0000F0AA8000F28380022D00F0A28077D862
:1013EC00002D00F08980012D00F099804FF00F093D
:1013FC00FF2A93BF824606F18045083DD0F800B025
:10140C0092BFB500D0F804B0AD0009FA05F82BEA8C
:10141C00080804FA05F588BF00F1040A48EA050536
:10142C00CAF80050D1F804A01AF0805F4ED0454D98
:10143C00444FAD6926F0030845F00105BD61BD6957
:10144C0008F1804805F00105019508F5803806F093
:10145C00030B019D4FEA8B0BD8F8085009FA0BF9D6
:10146C0025EA0909384DA84263D005F58065A842E4
:10147C0061D005F58065A8425FD005F58065A8426E
:10148C000CBF0325042505FA0BF545EA0905C8F838
:10149C0008501D681AF4803F14BF154395431D6016
:1014AC005D681AF4003F14BF154395435D609D6859
:1014BC001AF4801F14BF154395439D60DD681AF420
:1014CC00001F14BF2A4325EA0202DA6001366EE7D8
:1014DC00032D22D0112D89D1CC68043486E71B4F03
:1014EC00BD4209D012D8DFF870904D4504D009F5F3
:1014FC0080394D457FF47AAF8C68C4B1012C0CBF98
:10150C00C0F81080C0F8148008246FE77545F3D03C
:10151C006545F1D0DFF84490EBE7002466E7CC6832
:10152C0064E7CC68083461E7CC680C345EE70424CB
:10153C005CE70025A7E70125A5E70225A3E700BF87
:10154C00000401400010024000080140000021107E
:10155C0000003110000032100000111000002210A9
:10156C000AB1016170470904FBE7704708B5044BE9
:10157C005969014202D05861FFF7F7FF08BD00BF5F
:10158C00000401402DE9F341054608B901203CE077
:10159C000368DB0710D42B689F075DD42B681907F1
:1015AC0000F194802B685A0700F1BE80E86900288E
:1015BC0040F02C81002028E08F4C636803F00C0372
:1015CC00042B07D0636803F00C03082B09D1636864
:1015DC00DE0306D523689C03DDD56B68002BDAD1BE
:1015EC00D4E76B68B3F5803F12D1236843F48033A2
:1015FC002360FFF739FB064623689803CBD4FFF72B
:10160C0033FB801B6428F7D9032002B0BDE8F081BE
:10161C009BB9236823F480332360236823F480234D
:10162C002360FFF721FB064623689903B3D5FFF728
:10163C001BFB801B6428F7D9E6E7B3F5A02F2368C2
:10164C0003D143F480232360CFE723F4803323605A
:10165C00236823F48023CBE7674C636813F00C0FEB
:10166C0007D0636803F00C03082B10D16368DA030E
:10167C000DD423689B0702D52B69012B86D12368D7
:10168C006A6923F0F80343EAC203236086E72A69F8
:10169C005A4B6AB101221A60FFF7E6FA0646236834
:1016AC009F07ECD4FFF7E0FA801B0228F7D9ABE7D1
:1016BC001A60FFF7D9FA0646236898077FF56EAFD4
:1016CC00FFF7D2FA801B0228F6D99DE7AA694A4C8B
:1016DC004B4BDAB101221A60FFF7C6FA0646636A71
:1016EC009B070DD54FF4FA52464B1B68B3FBF2F334
:1016FC00019300BF019B5A1E0192002BF9D151E7B7
:10170C00FFF7B2FA801B0228E9D97DE71A60FFF7D0
:10171C00ABFA0646636A9F077FF544AFFFF7A4FA5E
:10172C00801B0228F6D96FE7334CE369D80024D428
:10173C000127E36943F08053E361E36903F08053CD
:10174C000093009B304E3368D90518D5EB68012BFC
:10175C0026D1236A43F001032362FFF785FA41F295
:10176C0088368046236A9B073FD5002F3FF41EAF77
:10177C00E36923F08053E36118E70027E2E733685D
:10178C0043F480733360FFF76FFA80463368DA05F1
:10179C00DCD4FFF769FAA0EB08006428F6D933E72C
:1017AC00ABB9236A41F2883823F001032362236A20
:1017BC0023F004032362FFF757FA0646236A9807BF
:1017CC00D3D5FFF751FA801B4045F7D91CE7052B01
:1017DC00236A03D143F004032362BAE723F0010325
:1017EC002362236A23F00403B6E7FFF73DFAA0EB6C
:1017FC000800B042B6D907E7001002400000424290
:10180C008004424204000020007000402A4B5A68B9
:10181C001C4602F00C02082A3DD00023274E022859
:10182C0033602BD1FFF720FA0746236899011FD4A8
:10183C002B6AB3F5803F05D16268A96822F40032A7
:10184C000A436260696A62680B4322F474121343A0
:10185C00636001233360FFF707FA054623689A019A
:10186C003FF5A8AEFFF700FA401B0228F6D9CBE6ED
:10187C00FFF7FAF9C01B0228D7D9C5E6FFF7F4F930
:10188C00054623689B017FF595AEFFF7EDF9401BEC
:10189C000228F6D9B8E601283FF4B7AE58682B6A8F
:1018AC0000F480329A427FF471AE6B6A00F47010CF
:1018BC00C01A18BF0120A8E6001002406000424286
:1018CC0030B5194B87B002AC03F1100522461868ED
:1018DC005968083303C2AB421446F7D101238DF883
:1018EC000430022311498DF805304B6803F00C02CB
:1018FC00082A17D1C3F3834206A80244DB0312F86B
:10190C00102C0CD54B680A48C3F34043504306AA2D
:10191C00134413F8143CB0FBF3F007B030BD05488A
:10192C005043FAE70248F8E74C2100080010024047
:10193C0000127A0000093D002DE9F0410D460446E5
:10194C0010B90120BDE8F081454A136803F0070384
:10195C008B4229D321688E0731D4CA0744D4404A1C
:10196C00136803F007039D4267D322683D4D12F0C4
:10197C00040F6ED1130706D56B68226923F46053EC
:10198C0043EAC2036B60FFF79BFF6B68364AC3F3F5
:10199C000313D35CD840354B1860354B1868FFF7F0
:1019AC0021F90020BDE8F081136823F007030B43F5
:1019BC001360136803F007039942C2D1CAE7294B9D
:1019CC0011F0040F1EBF5A6842F4E0625A60080717
:1019DC0042BF5A6842F460525A605A68A06822F0BA
:1019EC00F00202435A60B8E762681E4E012A33685F
:1019FC001BD113F4003FA4D0736841F2883823F054
:101A0C00030313437360FFF72FF90746736862688B
:101A1C0003F00C03B3EB820FA1D0FFF725F9C01B29
:101A2C004045F3D90320BDE8F081022A02D113F01E
:101A3C00007FE0E713F0020FDDE7136823F00703E4
:101A4C002B431360136803F007039D427FF479AFB7
:101A5C008BE76B68E16823F4E0630B436B6089E709
:101A6C0000200240001002405C210008040000200D
:101A7C000C000020044B054A5B68C3F30223D35CC3
:101A8C00034A1068D8407047001002406C210008CF
:101A9C0004000020044B054A5B68C3F3C223D35CEB
:101AAC00034A1068D8407047001002406C210008AF
:101ABC000400002003682DE9F341D907054620D521
:101ACC00354CE369DA0032D40127E36943F08053E3
:101ADC00E361E36903F080530193019B2F4E33685C
:101AEC00DB0526D5236A13F4407336D1236A6A6862
:101AFC0023F44073134323621FB1E36923F0805333
:101B0C00E3612868830706D5234AA968536823F440
:101B1C0040430B43536010F010001BD01E4AE96881
:101B2C005368002023F480030B43536012E000271A
:101B3C00D4E7336843F480733360FFF795F880463D
:101B4C003368D805CED4FFF78FF8A0EB08006428D3
:101B5C00F6D9032002B0BDE8F0816A6802F4407245
:101B6C009342C3D001200E4A236A1060002023F454
:101B7C00407110602162D907B8D5FFF775F841F2B2
:101B8C0088380646236A9A07B0D4FFF76DF8801B95
:101B9C004045F7D9DDE700BF00100240007000405F
:101BAC0040044242036A70B523F001030362036AE6
:101BBC00446882690D6822F073022A438D6823F011
:101BCC0002032B430A4DA8420BD1CD6823F0080326
:101BDC002B438E694D6924F44074354323F0040380
:101BEC002C43446082614A684263036270BD00BF4B
:101BFC00002C0140036A70B523F480730362036AFE
:101C0C004468C2690D6822F073022A438D6823F47C
:101C1C00007343EA05230B4DA8420DD1CD6823F484
:101C2C00006343EA05238E694D6924F4405435431F
:101C3C0023F4806344EA05144460C2614A68C263B9
:101C4C00036270BD002C0140036A30B523F480534D
:101C5C000362036A4468C2690D6822F4E64242EAF0
:101C6C0005228D6823F4005343EA0533064DA84240
:101C7C0002BF4D6924F4804444EA85144460C26177
:101C8C004A680264036230BD002C0140022380F8D4
:101C9C003D3003689A6802F00702062A1EBF1A68D4
:101CAC0042F001021A60012380F83D300020704799
:101CBC001A4A036890420AD0B0F1804F07D0A2F5BF
:101CCC009432904203D002F58062904215D14A685A
:101CDC0023F070031343114A90420AD0B0F1804FA5
:101CEC0007D0A2F59432904203D002F58062904264
:101CFC0003D1CA6823F4407313434A6923F0800369
:101D0C00134303608B68C3620B688362034B984276
:101D1C0004BF0B690363012343617047002C01402E
:101D2C0010B50446A0B190F83D3003F0FF021BB98A
:101D3C0080F83C20FEF7E2FE0223206884F83D3058
:101D4C00211DFFF7B5FF0123002084F83D3010BDA5
:101D5C00012010BD10B50446A0B190F83D3003F041
:101D6C00FF021BB980F83C20FEF7DCFE0223206842
:101D7C0084F83D30211DFFF79BFF0123002084F8E0
:101D8C003D3010BD012010BD036A70B523F0100367
:101D9C000362036A446882690D6822F4E64242EAEF
:101DAC0005228D6823F0200343EA05130B4DA8424E
:101DBC000DD1CD6823F0800343EA05138E694D697C
:101DCC0024F44064354323F0400344EA8504446022
:101DDC0082614A688263036270BD00BF002C0140BF
:101DEC0038B590F83C300446012B4FF0020018D067
:101DFC00012384F83D0084F83C301D460C2A0BD896
:101E0C00DFE802F0070A0A0A100A0A0A140A0A0A88
:101E1C0018002068FFF7C6FE002084F83D5084F8B7
:101E2C003C0038BD2068FFF7AFFFF5E72068FFF7EF
:101E3C00E1FEF1E72068FFF707FFEDE710B58468D6
:101E4C000A4324F47F4442EA03232343836010BDF6
:101E5C0090F83C3070B5012B04464FF0020019D0BD
:101E6C00012384F83D00206884F83C30836823F417
:101E7C007F4323F0770383600B68402B65D015D824
:101E8C00102B0CD007D853B10123002084F83D301F
:101E9C0084F83C0070BD202B01D0302BF4D182682B
:101EAC0043F0070322F0700213431AE0602B34D086
:101EBC0019D8502BE8D14A68CE68016A056A21F01E
:101ECC000A0125F00105056283690A4323F0F0033A
:101EDC0043EA061383610262836823F0700343F0C4
:101EEC0057038360D0E7702B0CD0B3F5005FCBD1D8
:101EFC00CB684A688968FFF7A1FF2268936843F4AE
:101F0C00804308E0CB684A688968FFF797FF22682E
:101F1C00936843F077039360B6E74D68CE68016A27
:101F2C0021F0100101628269036A22F4704223F0ED
:101F3C00A00343EA051342EA063282610362836816
:101F4C0023F0700343F06703CBE74A68CE68016A5D
:101F5C00056A21F00A0125F00105056283690A432F
:101F6C0023F0F00343EA061383610262836823F0D3
:101F7C00700343F04703B4E790F83C3030B5012BC5
:101F8C004FF0020314D0046880F83D306268A368F7
:101F9C000D68496822F0700223F080030B432A433A
:101FAC006260A360012380F83D30002380F83C3050
:101FBC00184630BD38B505460368C1681A6919243E
:101FCC0022F440520A431A6182680069D9680243BC
:101FDC00686921F4B05121F00C0102430A43DA6024
:101FEC005A69A96922F440720A435A610D4A934214
:101FFC0014D1FFF74FFD60436C686422A400B0FB62
:10200C00F4F0B0FBF2F402FB14031B013233B3FB0C
:10201C00F2F3296803EB04138B6038BDFFF72AFD3C
:10202C00E9E700BF0038014010B5044640B390F812
:10203C00393003F0FF021BB980F83820FEF7A2FDFF
:10204C002423226884F83930D368204623F40053C3
:10205C00D360FFF7AFFF236800201A6922F4904287
:10206C001A615A6922F02A025A61DA6842F4005263
:10207C00DA602023E06384F8393084F83A3010BDFC
:10208C00012010BD002103E00B4B5B584350043181
:10209C000A480B4B42189A42F6D30A4A02E0002334
:1020AC0042F8043B084B9A42F9D3FEF797FC00F038
:1020BC000FF8FEF7E5FB70477C21000800000020BC
:1020CC00100000201000002080010020FEE700001E
:1020DC0070B500250C4E0D4CA41BA410A54209D1C3
:1020EC0000F022F800250A4E0A4CA41BA410A542AD
:1020FC0005D170BD56F8253098470135EEE756F8F6
:10210C00253098470135F2E7742100087421000846
:10211C00742100087821000803460244934200D140
:10212C00704703F8011BF9E7F8B500BFF8BC08BC11
:10213C009E467047F8B500BFF8BC08BC9E46704779
:10214C0002030405060708090A0B0C0D0E0F1010EC
:10215C00000000000000000001020304060708094B
:08216C00000000000102030461
:04217400310100082D
:042178000D0100084D
:10217C00960000000024F400010000001000000094
:04000005080020913E
:00000001FF
