:020000040800F2
:10000000005000204D1B0008A5090008A7090008A2
:10001000A9090008AB090008AD09000800000000AC
:10002000000000000000000000000000AF09000810
:10003000B109000800000000B3090008B509000874
:10004000951B0008951B0008951B0008951B0008D0
:10005000951B0008951B0008951B0008951B0008C0
:10006000951B0008951B0008951B0008C509000892
:10007000951B0008951B0008951B0008951B0008A0
:10008000951B0008951B0008951B0008951B000890
:10009000951B0008951B0008951B0008951B000880
:1000A000951B0008951B0008951B0008951B000870
:1000B000951B0008951B0008951B0008951B000860
:1000C000951B0008951B0008951B0008951B000850
:1000D000951B0008951B0008951B0008951B000840
:1000E000D1090008951B0008951B000800000000BE
:1000F0000000000000000000000000000000000000
:0C01000000000000000000005FF808F1A3
:10010C0010B5054C237833B9044B13B10448AFF345
:10011C0000800123237010BD10000020000000009F
:10012C00F01B000808B5034B1BB103490348AFF3A0
:10013C00008008BD0000000014000020F01B000827
:10014C0080F0004002E000BF81F0004142001FBF80
:10015C005FEA410392EA030F7FEA226C7FEA236C89
:10016C006AD04FEA1262D2EB1363C1BFD21841407E
:10017C0048404140B8BF5B42192B88BF704710F014
:10018C00004F40F4000020F07F4018BF404211F0B7
:10019C00004F41F4000121F07F4118BF494292EA1F
:1001AC00030F3FD0A2F1010241FA03FC10EB0C004B
:1001BC00C3F1200301FA03F100F0004302D54942D8
:1001CC0060EB4000B0F5000F13D3B0F1807F06D385
:1001DC0040084FEA310102F10102FE2A51D2B1F17D
:1001EC00004F40EBC25008BF20F0010040EA030072
:1001FC007047490040EB000010F4000FA2F101021F
:10020C00EDD1B0FA80FCACF1080CB2EB0C0200FAA8
:10021C000CF0AABF00EBC25052421843BCBFD040F6
:10022C001843704792F0000F81F4000106BF80F470
:10023C0000000132013BB5E74FEA41037FEA226C33
:10024C0018BF7FEA236C21D092EA030F04D092F0FE
:10025C00000F08BF0846704790EA010F1CBF002032
:10026C00704712F07F4F04D1400028BF40F000408F
:10027C00704712F100723CBF00F50000704700F0AF
:10028C00004343F0FE4040F4000070477FEA2262D6
:10029C0016BF08467FEA23630146420206BF5FEAA7
:1002AC00412390EA010F40F4800070474FF00003A7
:1002BC0004E000BF10F0004348BF40425FEA000C6E
:1002CC0008BF704743F0964301464FF000001CE016
:1002DC0050EA010208BF70474FF000030AE000BF6C
:1002EC0050EA010208BF704711F0004302D54042AA
:1002FC0061EB41015FEA010C02BF8446014600201C
:10030C0043F0B64308BFA3F18053A3F50003BCFA36
:10031C008CF2083AA3EBC25310DB01FA02FC6344E3
:10032C0000FA02FCC2F12002BCF1004F20FA02F2EA
:10033C0043EB020008BF20F00100704702F12002DD
:10034C0001FA02FCC2F1200250EA4C0021FA02F23E
:10035C0043EB020008BF20EADC7070474FF0FF0C43
:10036C001CEAD0521EBF1CEAD15392EA0C0F93EA3E
:10037C000C0F6FD01A4480EA010C400218BF5FEAE0
:10038C0041211ED04FF0006343EA501043EA511153
:10039C00A0FB01310CF00040B1F5000F3EBF49004D
:1003AC0041EAD3715B0040EA010062F17F02FD2A51
:1003BC001DD8B3F1004F40EBC25008BF20F0010034
:1003CC00704790F0000F0CF0004C08BF49024CEA4B
:1003DC00502040EA51207F3AC2BFD2F1FF0340EADD
:1003EC00C250704740F400004FF00003013A5DDC4E
:1003FC0012F1190FDCBF00F000407047C2F100028F
:10040C00410021FA02F1C2F1200200FA02FC5FEA7B
:10041C00310040F1000053EA4C0308BF20EADC70C5
:10042C00704792F0000F00F0004C02BF400010F437
:10043C00000F013AF9D040EA0C0093F0000F01F0E4
:10044C00004C02BF490011F4000F013BF9D041EA06
:10045C000C018FE70CEAD15392EA0C0F18BF93EA08
:10046C000C0F0AD030F0004C18BF31F0004CD8D132
:10047C0080EA010000F00040704790F0000F17BFB9
:10048C0090F0004F084691F0000F91F0004F14D0FF
:10049C0092EA0C0F01D142020FD193EA0C0F03D157
:1004AC004B0218BF084608D180EA010000F000405A
:1004BC0040F0FE4040F40000704740F0FE4040F435
:1004CC00400070474FF0FF0C1CEAD0521EBF1CEAD4
:1004DC00D15392EA0C0F93EA0C0F69D0A2EB0302F2
:1004EC0080EA010C49024FEA402037D04FF080538C
:1004FC0043EA111143EA10130CF000408B4238BF51
:10050C005B0042F17D024FF4000C8B4224BF5B1A5E
:10051C0040EA0C00B3EB510F24BFA3EB510340EAAC
:10052C005C00B3EB910F24BFA3EB910340EA9C005A
:10053C00B3EBD10F24BFA3EBD10340EADC001B01CA
:10054C0018BF5FEA1C1CE0D1FD2A3FF650AF8B426E
:10055C0040EBC25008BF20F0010070470CF0004C7B
:10056C004CEA50207F32C2BFD2F1FF0340EAC250A6
:10057C00704740F400004FF00003013A37E792F067
:10058C00000F00F0004C02BF400010F4000F013AC5
:10059C00F9D040EA0C0093F0000F01F0004C02BFC0
:1005AC00490011F4000F013BF9D041EA0C0195E729
:1005BC000CEAD15392EA0C0F08D142027FF47DAFC2
:1005CC0093EA0C0F7FF470AF084676E793EA0C0FB2
:1005DC0004D14B023FF44CAF08466EE730F0004CB0
:1005EC0018BF31F0004CCAD130F000427FF45CAF40
:1005FC0031F000437FF43CAF5FE700BF1148124B72
:10060C0030B50024012503604FF4602385B00194BC
:10061C0002940394846005730475C361446005619E
:10062C0000F036FC08B100F093F9072301A9054846
:10063C0001940295039300F0BFFA08B100F088F919
:10064C0005B030BD440000200024014030B5054603
:10065C0087B01022002102A801F0BCFA2A681D4BB9
:10066C009A4234D103F56C439A691B4842F40072E8
:10067C009A619A6902A902F400720092009A9A692E
:10068C00164C42F004029A619B6903F00403019337
:10069C00019B012302930323039300F0E5FD8022C9
:1006AC00E2604FF4807222614FF480620C4B626105
:1006BC0023602022002320466360A360A261E361D3
:1006CC0000F0D0FC08B100F043F92C62656207B071
:1006DC0030BD00BF00240140000801407400002020
:1006EC00080002400A4B07B55A690B2042F0010280
:1006FC005A6100225B69114603F001030193019BCF
:10070C0000F058FC0B2000F089FC03B05DF804FBF2
:10071C00001002401022F0B589B00DEB0200002150
:10072C0001F058FA354B364E9A69304642F01002B9
:10073C009A619A69202102F010020092009A9A693B
:10074C00002542F020029A619A692E4F02F0200295
:10075C000192019A9A69032442F004029A619A69FF
:10076C0002F004020292029A9A6942F008029A611B
:10077C009B69002203F008030393039B00F056FED1
:10078C004FF400530493204B04A938460593069567
:10079C0000F06AFD41F6FF7304A9384604930594F2
:1007AC0000F062FD49F6D27304A930460493059417
:1007BC0000F05AFD2023049301230593022304A97E
:1007CC0030460793069500F04FFD4FF6F77304A9DA
:1007DC000E480493059400F047FD042304A90C482B
:1007EC000493059400F040FD2A462946282000F089
:1007FC00E1FB282000F012FC09B0F0BD0010024013
:10080C00000801400010014000001110000C0140D4
:10081C0000140140282230B595B00DEB02000021E8
:10082C0001F0D8F9142210250DEB0200002101F083
:10083C00D1F92A46002101A801F0CCF901230224A8
:10084C000E934FF460130AA813930A940F95119406
:10085C0000F0FEFD0F234FF4806205930023214628
:10086C0005A8079308920993069400F0CBFF4FF468
:10087C00004301A80194039301F082F815B030BD38
:10088C0008B500F039F9FFF7C5FFFFF743FFFFF795
:10089C0029FFFFF7B3FE00F0BFF80122024903481D
:1008AC0000F046FAFEE700BFB8000020440000202C
:1008BC002DE9F8431E4A1F4E13781F4C0133DBB24F
:1008CC00642B137023D81D4B1D4F93F800801D4BC8
:1008DC0008F1FF301D68FFF7EDFC3968FFF73EFDAE
:1008EC0081462846FFF7E2FC01464846FFF72EFCFE
:1008FC0081464046FFF7DEFC01464846FFF7E2FD25
:10090C0030603860206828442060BDE8F8830025FA
:10091C000D4B1570326820681A60642390FBF3F05D
:10092C00FFF7C8FC094B25601860BDE8F88300BFD1
:10093C003400002040000020300000200000002087
:10094C003C000020B8000020380000202C000020C3
:10095C00704700000E4B82B09A6942F001029A6116
:10096C009A6902F001020092009ADA6942F0805210
:10097C00DA61DB69074A03F080530193019B5368EA
:10098C0023F0E06343F00073536002B0704700BF84
:10099C0000100240000001407047FEE7FEE7FEE752
:1009AC00FEE770477047704708B5FFF781FFBDE859
:1009BC00084000F0B3B80000014800F0C1BB00BF14
:1009CC00740000204FF4005000F036BD0F4B1A6835
:1009DC0042F001021A6059680D4A0A405A601A68BE
:1009EC0022F0847222F480321A601A6822F4802277
:1009FC001A605A6822F4FE025A604FF41F029A6081
:100A0C004FF00062034B9A60704700BF0010024029
:100A1C000000FFF800ED00E008B54FF4E13E0A4895
:100A2C000A4B0C2280E80840002342618360C360BB
:100A3C0003618361C36101F055F818B1BDE808404A
:100A4C00FFF786BF08BD00BFBC000020004400407B
:100A5C0010B5044686B01022002102A801F0BAF8A5
:100A6C002268114B9A421CD103F5E633DA6902A9CC
:100A7C0042F40032DA61DA690C4802F40032009276
:100A8C00009A9A6942F004029A619B6903F004038C
:100A9C000193019B0C23029302230393059300F013
:100AAC00E3FB06B010BD00BF00440040000801404D
:100ABC0038B50E4B054618784FF47A73B3FBF0F348
:100ACC000B4A1068B0FBF3F000F0B6FA044658B9C4
:100ADC000F2D09D8024629464FF0FF3000F06AFA74
:100AEC00044B20461D6038BD012038BD0800002095
:100AFC00040000200C000020074A08B513680320EE
:100B0C0043F01003136000F043FA0020FFF7D0FF0E
:100B1C00FFF720FF002008BD00200240034A044BD1
:100B2C0011681B780B441360704700BFFC00002059
:100B3C0008000020014B1868704700BFFC00002023
:100B4C007047436A10B59A6A12F0500F1BD19A6A1B
:100B5C0042F400729A621A68926802F46022B2F54A
:100B6C00602F0CD11A7B52B99A6A22F480729A6265
:100B7C009A6AD2045EBF9A6A42F001029A621846DF
:100B8C00FFF7DEFF10BD1B6ABDE810401B6B18475A
:100B9C00704708B5406AFFF7FBFF08BD7047406A15
:100BAC0008B5836A43F040038362C36A43F00403CD
:100BBC00C362FFF7F3FF08BD002373B5019390F8F0
:100BCC002430012B74D001234D6880F82430062D7D
:100BDC0002684FEA85030C6825D82B441F25566BF9
:100BEC00053B9D4026EA050504FA03F32B435363AA
:100BFC00092C4FEA44038D682FD907262344D1686A
:100C0C001E3B9E4021EA060105FA03F30B43D36019
:100C1C00A4F11003012B2BD90023002280F82420EF
:100C2C00184602B070BD0C2D0BD82B441F25166B2B
:100C3C00233B9D4026EA050504FA03F32B4313637B
:100C4C00D6E72B441F25D66A413B9D4026EA050575
:100C5C0004FA03F32B43D362CAE707261169234432
:100C6C009E4021EA060105FA03F30B431361CFE71B
:100C7C00104B9A4216D193681B02CDD49368102C5A
:100C8C0043F400039360C7D10B4B0C4A1B68B3FBB6
:100C9C00F2F20A2353430193019B002BBCD0019B1E
:100CAC00013BF8E7836A43F0200383620123B4E736
:100CBC000223B5E7002401400400002040420F004D
:100CCC00002373B50193036804469A68D20702D5D2
:100CDC00002002B070BD9A6842F001029A60124B7B
:100CEC00124A1B68B3FBF2F30193019BC3B9FFF7E4
:100CFC0021FF064623689D6815F00105E8D1FFF732
:100D0C0019FF801B0228F5D9A36A84F8245043F0FC
:100D1C001003A362E36A012043F00103E362D8E706
:100D2C00019B013BE0E700BF0400002040420F00A4
:100D3C002DE9D8419046404B026804469A420F4632
:100D4C0002D03E498A4203D15B6813F4702F6ED1F6
:100D5C0094F82430012B6CD00123204684F82430E5
:100D6C00FFF7AEFF064600285DD1A06A216820F48B
:100D7C007060324B20F0010040F480709942A06208
:100D8C0004D12D4A536813F4702F3ED1A36A23F477
:100D9C008013A3624B685A0505D5A36A23F440530C
:100DAC0043F48053A362A36A206A13F4805318BFE0
:100DBC00E36A3A4618BF23F00603E362002384F883
:100DCC0024301F4B4C3183621E4BC3621E4B03639A
:100DDC006FF0020341F84C3C51F8443C43F48073EF
:100DEC0041F8443C434600F06DF923689A6802F4DC
:100DFC006022B2F5602F9A680CBF42F4A00242F454
:100E0C0080129A603046BDE8D881A36A43F48013FF
:100E1C00A36253685B0541BFA06A20F4405040F4C4
:100E2C008050A062BFE7002384F82430EAE7012653
:100E3C00E8E70226E6E700BF002401400028014055
:100E4C004F0B00089F0B0008AB0B000838B503686C
:100E5C0004469A68D20701D4002038BD9A6822F063
:100E6C0001029A60FFF766FE054623689B68DB0764
:100E7C00F2D5FFF75FFE401B0228F6D9A36A0120CA
:100E8C0043F01003A362E36A43F00103E36238BD4D
:100E9C0070B50446002871D0836A23B9C36280F808
:100EAC002430FFF7D3FB2046FFF7D0FFA36A13F0E3
:100EBC00100FA36A64D1002862D1E16923F488532E
:100ECC00626823F0020343F002030A43A168A362A1
:100EDC00237BB1F5807F42EA430238D0012914BF4D
:100EEC0006464FF48076257D012D07D1002B30D19D
:100EFC00A369013B46EA433545F400662368B1F526
:100F0C00807F5D6825F4694545EA06055D609E684D
:100F1C001D4D05EA060545EA02059D6001D0012933
:100F2C0020D1216901390905DD6A25F470052943B1
:100F3C00D9629968154B0B409A4215D10023E36294
:100F4C00A36A23F0030343F00103A36270BD0E46B2
:100F5C00C9E7A36A43F02003A362E36A43F00103E9
:100F6C00E362CBE70021DFE7A36A23F0120343F02F
:100F7C001003A362E36A43F00103E362012070BD36
:100F8C0043F01003A362F9E7FDF7E1FFFE0E1FFF2C
:100F9C00074A0002D36800F4E06023F4E0631B040A
:100FAC001B0C43F0BF6343F400330343D36070471F
:100FBC0000ED00E0174B30B5DC68C4F30224C4F13B
:100FCC000703251D042B28BF0423062D4FF0010514
:100FDC0098BF002405FA03F303F1FF3388BF033CE9
:100FEC001940A14005FA04F4013C2240002842EAD1
:100FFC0001024FEA0212A9BF00F16040064BD2B2C7
:10100C0000F56140BBBF00F00F00D2B280F80023A6
:10101C001A5430BD00ED00E014ED00E0002808DBB0
:10102C000123420900F01F0003FA00F0014B43F8C2
:10103C002200704700E100E00138B0F1807F0AD255
:10104C00F021064B064A586082F823100020072234
:10105C0098601A6070470120704700BF10E000E0F4
:10106C0000ED00E010B530B314220168134B846816
:10107C000B44B3FBF2F39B000364114B0A68C3638C
:10108C00436822F47F522343C46822F03002234386
:10109C00046923434469234384692343C469234378
:1010AC0013430B600122002380F82120836380F816
:1010BC002030184610BD012010BD00BFF8FFFDBF49
:1010CC0000000240F0B590F82040012C35D00124EE
:1010DC0090F8215080F82040A5424FF000064FF0C8
:1010EC00020428D180F82140046886632668076CC6
:1010FC0026F001062660C66BBD40756063604368D0
:10110C000568102BC36A0BBFA260A160E160E260AE
:10111C004BB1236843F00E0323602B68002043F08F
:10112C0001032B60F0BD236823F0040323602368C4
:10113C0043F00A03F0E780F820600220F0BD0000C5
:10114C0070B40425C66B026C346803689540254264
:10115C00196832D04D0730D51A6896065EBF1A68EA
:10116C0022F004021A603E4A934219D01432934280
:10117C0018D01432934217D01432934217D0143231
:10118C00934217D0143293420CBF4FF480034FF0AC
:10119C008063344A5360C36A002B5ED070BC18471E
:1011AC000423F6E74023F4E74FF48063F1E74FF4B0
:1011BC008043EEE74FF48023EBE702259540254270
:1011CC0035D08D0733D51A68940606D41A6822F0E8
:1011DC000A021A60012280F82120214A934219D078
:1011EC001432934218D01432934217D014329342D3
:1011FC0017D01432934217D0143293420CBF4FF4D1
:10120C0000134FF00073174A5360002380F820300E
:10121C00836AC1E70223F6E72023F4E74FF4007357
:10122C00F1E74FF40053EEE74FF40033EBE70825FA
:10123C009540254211D009070FD5196821F00E01F0
:10124C001960012303FA02F27260836380F8213083
:10125C00002380F82030036B9EE770BC704700BF02
:10126C0008000240000002402DE9F74F00242646FA
:10127C00664BDFF8A8E1DFF8A8C10A6832FA06F578
:10128C0002D103B0BDE8F08F4FF0010808FA06F860
:10129C0002EA080290457FD14D68122D00F0AA8019
:1012AC0000F28380022D00F0A28077D8002D00F090
:1012BC008980012D00F099804FF00F09FF2A93BF10
:1012CC00824606F18045083DD0F800B092BFB500CB
:1012DC00D0F804B0AD0009FA05F82BEA080804FAB6
:1012EC0005F588BF00F1040A48EA0505CAF8005064
:1012FC00D1F804A01AF0805F4ED0454D444FAD6933
:10130C0026F0030845F00105BD61BD6908F1804870
:10131C0005F00105019508F5803806F0030B019DD9
:10132C004FEA8B0BD8F8085009FA0BF925EA090992
:10133C00384DA84263D005F58065A84261D005F50B
:10134C008065A8425FD005F58065A8420CBF0325D7
:10135C00042505FA0BF545EA0905C8F808501D687F
:10136C001AF4803F14BF154395431D605D681AF451
:10137C00003F14BF154395435D609D681AF4801FB0
:10138C0014BF154395439D60DD681AF4001F14BF0C
:10139C002A4325EA0202DA6001366EE7032D22D0D9
:1013AC00112D89D1CC68043486E71B4FBD4209D07E
:1013BC0012D8DFF870904D4504D009F580394D45B1
:1013CC007FF47AAF8C68C4B1012C0CBFC0F81080CC
:1013DC00C0F8148008246FE77545F3D06545F1D04B
:1013EC00DFF84490EBE7002466E7CC6864E7CC6850
:1013FC00083461E7CC680C345EE704245CE7002514
:10140C00A7E70125A5E70225A3E700BF00040140DB
:10141C0000100240000801400000211000003110B3
:10142C000000321000001110000022100AB10161FE
:10143C0070470904FBE7704708B5044B5969014232
:10144C0002D05861FFF7F7FF08BD00BF0004014050
:10145C002DE9F341054608B901203CE00368DB07A0
:10146C0010D42B689F075DD42B68190700F194806A
:10147C002B685A0700F1BE80E869002840F02C81E7
:10148C00002028E08F4C636803F00C03042B07D07A
:10149C00636803F00C03082B09D16368DE0306D5DF
:1014AC0023689C03DDD56B68002BDAD1D4E76B681D
:1014BC00B3F5803F12D1236843F480332360FFF7E8
:1014CC0039FB064623689803CBD4FFF733FB801B0C
:1014DC006428F7D9032002B0BDE8F0819BB92368DA
:1014EC0023F480332360236823F480232360FFF7E5
:1014FC0021FB064623689903B3D5FFF71BFB801B22
:10150C006428F7D9E6E7B3F5A02F236803D143F499
:10151C0080232360CFE723F480332360236823F4F4
:10152C008023CBE7674C636813F00C0F07D063681C
:10153C0003F00C03082B10D16368DA030DD4236875
:10154C009B0702D52B69012B86D123686A6923F08E
:10155C00F80343EAC203236086E72A695A4B6AB14F
:10156C0001221A60FFF7E6FA064623689F07ECD4BF
:10157C00FFF7E0FA801B0228F7D9ABE71A60FFF7F8
:10158C00D9FA0646236898077FF56EAFFFF7D2FAB3
:10159C00801B0228F6D99DE7AA694A4C4B4BDAB15D
:1015AC0001221A60FFF7C6FA0646636A9B070DD53F
:1015BC004FF4FA52464B1B68B3FBF2F3019300BF96
:1015CC00019B5A1E0192002BF9D151E7FFF7B2FA99
:1015DC00801B0228E9D97DE71A60FFF7ABFA0646B3
:1015EC00636A9F077FF544AFFFF7A4FA801B0228BC
:1015FC00F6D96FE7334CE369D80024D40127E369AB
:10160C0043F08053E361E36903F080530093009B44
:10161C00304E3368D90518D5EB68012B26D1236AD7
:10162C0043F001032362FFF785FA41F288368046C6
:10163C00236A9B073FD5002F3FF41EAFE36923F0CD
:10164C008053E36118E70027E2E7336843F48073C3
:10165C003360FFF76FFA80463368DA05DCD4FFF7A6
:10166C0069FAA0EB08006428F6D933E7ABB9236A12
:10167C0041F2883823F001032362236A23F0040328
:10168C002362FFF757FA0646236A9807D3D5FFF76C
:10169C0051FA801B4045F7D91CE7052B236A03D16F
:1016AC0043F004032362BAE723F001032362236AA5
:1016BC0023F00403B6E7FFF73DFAA0EB0800B042B5
:1016CC00B6D907E7001002400000424280044242B3
:1016DC0004000020007000402A4B5A681C4602F09F
:1016EC000C02082A3DD00023274E022833602BD150
:1016FC00FFF720FA0746236899011FD42B6AB3F52C
:10170C00803F05D16268A96822F400320A43626006
:10171C00696A62680B4322F47412134363600123F9
:10172C003360FFF707FA054623689A013FF5A8AE28
:10173C00FFF700FA401B0228F6D9CBE6FFF7FAF9BF
:10174C00C01B0228D7D9C5E6FFF7F4F90546236874
:10175C009B017FF595AEFFF7EDF9401B0228F6D9FA
:10176C00B8E601283FF4B7AE58682B6A00F4803213
:10177C009A427FF471AE6B6A00F47010C01A18BFF5
:10178C000120A8E6001002406000424230B5194B1F
:10179C0087B002AC03F1100522461868596808336B
:1017AC0003C2AB421446F7D101238DF80430022357
:1017BC0011498DF805304B6803F00C02082A17D13B
:1017CC00C3F3834206A80244DB0312F8102C0CD599
:1017DC004B680A48C3F34043504306AA134413F81A
:1017EC00143CB0FBF3F007B030BD05485043FAE7AA
:1017FC000248F8E7081C00080010024000127A00AA
:10180C0000093D002DE9F0410D46044610B90120B8
:10181C00BDE8F081454A136803F007038B4229D3D6
:10182C0021688E0731D4CA0744D4404A136803F0A8
:10183C0007039D4267D322683D4D12F0040F6ED111
:10184C00130706D56B68226923F4605343EAC2037D
:10185C006B60FFF79BFF6B68364AC3F30313D35CD3
:10186C00D840354B1860354B1868FFF721F900202C
:10187C00BDE8F081136823F007030B431360136872
:10188C0003F007039942C2D1CAE7294B11F0040FA8
:10189C001EBF5A6842F4E0625A60080742BF5A6899
:1018AC0042F460525A605A68A06822F0F002024377
:1018BC005A60B8E762681E4E012A33681BD113F4D4
:1018CC00003FA4D0736841F2883823F0030313431C
:1018DC007360FFF72FF907467368626803F00C0317
:1018EC00B3EB820FA1D0FFF725F9C01B4045F3D90C
:1018FC000320BDE8F081022A02D113F0007FE0E75B
:10190C0013F0020FDDE7136823F007032B4313607A
:10191C00136803F007039D427FF479AF8BE76B6884
:10192C00E16823F4E0630B436B6089E7002002401D
:10193C0000100240181C0008040000200C000020BD
:10194C00044B054A5B68C3F30223D35C034A10685B
:10195C00D840704700100240281C000804000020EA
:10196C00044B054A5B68C3F3C223D35C034A10687B
:10197C00D840704700100240281C000804000020CA
:10198C0003682DE9F341D907054620D5354CE369A9
:10199C00DA0032D40127E36943F08053E361E36951
:1019AC0003F080530193019B2F4E3368DB0526D542
:1019BC00236A13F4407336D1236A6A6823F44073A4
:1019CC00134323621FB1E36923F08053E36128685A
:1019DC00830706D5234AA968536823F440430B4375
:1019EC00536010F010001BD01E4AE96853680020A9
:1019FC0023F480030B43536012E00027D4E73368D1
:101A0C0043F480733360FFF795F880463368D8054C
:101A1C00CED4FFF78FF8A0EB08006428F6D903208A
:101A2C0002B0BDE8F0816A6802F440729342C3D000
:101A3C0001200E4A236A1060002023F440711060CC
:101A4C002162D907B8D5FFF775F841F288380646F8
:101A5C00236A9A07B0D4FFF76DF8801B4045F7D97D
:101A6C00DDE700BF0010024000700040400442421D
:101A7C0038B505460368C1681A69192422F4405226
:101A8C000A431A6182680069D9680243686921F4C3
:101A9C00B05121F00C0102430A43DA605A69A9697A
:101AAC0022F440720A435A610D4A934214D1FFF753
:101ABC0057FF60436C686422A400B0FBF4F0B0FBE9
:101ACC00F2F402FB14031B013233B3FBF2F329686B
:101ADC0003EB04138B6038BDFFF732FFE9E700BF5F
:101AEC000038014010B5044640B390F8393003F08B
:101AFC00FF021BB980F83820FEF7AAFF24232268C6
:101B0C0084F83930D368204623F40053D360FFF7B0
:101B1C00AFFF236800201A6922F490421A615A69B7
:101B2C0022F02A025A61DA6842F40052DA60202369
:101B3C00E06384F8393084F83A3010BD012010BDD0
:101B4C00002103E00B4B5B58435004310A480B4B0C
:101B5C0042189A42F6D30A4A02E0002342F8043BA8
:101B6C00084B9A42F9D3FEF731FF00F00FF8FEF75D
:101B7C0087FE7047381C0008000000201000002071
:101B8C001000002000010020FEE7000070B50025C9
:101B9C000C4E0D4CA41BA410A54209D100F022F848
:101BAC0000250A4E0A4CA41BA410A54205D170BDF9
:101BBC0056F8253098470135EEE756F8253098470A
:101BCC000135F2E7301C0008301C0008301C0008FE
:101BDC00341C000803460244934200D1704703F8BA
:101BEC00011BF9E7F8B500BFF8BC08BC9E4670476E
:0C1BFC00F8B500BFF8BC08BC9E4670475E
:101C080002030405060708090A0B0C0D0E0F101035
:101C18000000000000000000010203040607080994
:081C28000000000001020304AA
:041C30003101000876
:041C34000D01000896
:101C3800960000000024F4000100000010000000DD
:0400000508001B4D87
:00000001FF
